:100000000C942A000C9447000C9447000C94470071
:100010000C9447000C9447000C9447000C946E1904
:100020000C9447000C9447000C9447000C94470034
:100030000C9447000C9447000C9447000C94470024
:100040000C9447000C9447000C9447000C94470014
:100050000C94470011241FBECFE5D8E0DEBFCDBF12
:1000600010E0A0E6B0E0E8EFF0E502C005900D92E8
:10007000A23BB107D9F711E0A2EBB0E001C01D929D
:10008000A835B107E1F70E946B060C947A280C940E
:100090000000EF92FF920F931F937B018C0120E0F1
:1000A00030E040E05FE40E94490388238CF0C801FF
:1000B000B70120E030E040E05FE40E94C1010E940F
:1000C000A9039B01AC01205030404040504806C07D
:1000D000C801B7010E94A9039B01AC01B901CA0183
:1000E0001F910F91FF90EF900895A0E0B0E0EBE733
:1000F000F0E00C94EE26DC012B01FA019C91923089
:1001000008F439C1EB018881823008F433C194309E
:1001100069F4843009F02FC111969C91119789815F
:10012000981709F428C1A1EAB0E025C1843009F488
:1001300021C18230A9F4923009F01DC19A01AD01AC
:1001400088E0EA010990AE01E90109929E0181501F
:10015000C1F7E201898111969C918923818308C1AD
:10016000923009F407C112962D903C901397EB0141
:100170008A819B811496AD90BD90CD90DC901797AD
:10018000EC80FD800E811F819101281B390BB90184
:1001900037FF04C066277727621B730B6032710537
:1001A0000CF061C0121613066CF537014801062EDB
:1001B00004C096948794779467940A94D2F721E0C8
:1001C00030E040E050E004C0220F331F441F551FB1
:1001D0006A95D2F721503040404050402E213F21B7
:1001E00040235123211531054105510521F021E01E
:1001F00030E040E050E079018A01E628F72808293C
:1002000019293CC0232BD1F1260E371E350146019A
:10021000062E04C096948794779467940A94D2F734
:1002200021E030E040E050E004C0220F331F441FC3
:10023000551F6A95D2F721503040404050402A2146
:100240003B214C215D21211531054105510521F04E
:1002500021E030E040E050E059016A01A628B728CB
:10026000C828D9280BC0821593052CF01C01AA249C
:10027000BB24650103C0EE24FF24870111969C91E5
:10028000D20111968C91981709F445C0992339F041
:10029000A80197012A193B094C095D0906C0A6016E
:1002A00095012E193F09400B510B57FD08C01182D3
:1002B0003382228224833583468357831DC081E0A5
:1002C00081833382228288279927DC01821B930B4A
:1002D000A40BB50B84839583A683B7830DC0220F2F
:1002E000331F441F551F24833583468357838281E0
:1002F000938101979383828324813581468157813D
:10030000DA01C9010197A109B1098F5F9F4FAF4F72
:10031000BF4328F30BC0918333822282EA0CFB1C7B
:100320000C1D1D1DE482F5820683178383E0808304
:10033000248135814681578157FF1AC0C901AA27F8
:1003400097FDA095BA2F81709070A070B0705695EF
:10035000479537952795822B932BA42BB52B848318
:100360009583A683B7838281938101969383828349
:10037000DF0101C0D201CD01CDB7DEB7E2E10C94BF
:100380000A27A0E2B0E0E7ECF1E00C94FA266983DA
:100390007A838B839C832D833E834F835887E9E048
:1003A000EE2EF12CEC0EFD1ECE010196B7010E943F
:1003B000D2048E010F5E1F4FCE010596B8010E9438
:1003C000D2048A8991E089278A8BC701B801AE01DE
:1003D000475E5F4F0E9475000E94FD03A096E6E015
:1003E0000C941627A0E2B0E0E8EFF1E00C94FA26B6
:1003F00069837A838B839C832D833E834F835887C5
:10040000F9E0EF2EF12CEC0EFD1ECE010196B701A6
:100410000E94D2048E010F5E1F4FCE010596B801D7
:100420000E94D204C701B801AE01475E5F4F0E942F
:1004300075000E94FD03A096E6E00C941627A0E24A
:10044000B0E0E5E2F2E00C94EE2669837A838B83D8
:100450009C832D833E834F835887CE010196BE0136
:10046000675F7F4F0E94D204CE010596BE016F5E8A
:100470007F4F0E94D2049985923088F0898982301A
:10048000C8F0943019F4823051F404C0843029F457
:10049000923081F481EA90E0C6C0923049F420E0C5
:1004A0009A858A89981321E02A87CE010996BBC0D4
:1004B000823049F420E09A858A89981321E02A8BBA
:1004C000CE014196B0C02D843E844F8458886D88FB
:1004D0007E888F88988CEE24FF248701AA24BB2471
:1004E000650140E050E060E070E0E0E0F0E0C10174
:1004F00081709070892BE9F0E60CF71C081D191D1E
:100500009A01AB012A0D3B1D4C1D5D1D80E090E062
:10051000A0E0B0E0E614F7040805190520F481E036
:1005200090E0A0E0B0E0BA01A901480F591F6A1F8E
:100530007B1FAA0CBB1CCC1CDD1C97FE08C081E0F5
:1005400090E0A0E0B0E0A82AB92ACA2ADB2A3196B6
:10055000E032F10549F0660C771C881C991C569412
:10056000479437942794C3CFFA85EA892B893C892D
:100570008B859C85280F391F2E5F3F4F17C0CA01FE
:1005800081709070892B61F016950795F794E79428
:1005900080E090E0A0E0B0E8E82AF92A0A2B1B2BC3
:1005A00076956795579547952F5F3F4F77FDE7CF36
:1005B0000CC0440F551F661F771F17FD4160EE0CDE
:1005C000FF1C001F111F21503040403090E05907A0
:1005D00090E0690790E4790760F32B8F3C8FDB0193
:1005E000CA018F779070A070B07080349105A1051A
:1005F000B10561F447FD0AC0E114F10401051105DC
:1006000029F0405C5F4F6F4F7F4F40781A8EFE1786
:1006100011F081E08A8F4D8F5E8F6F8F78A383E01A
:10062000898FCE0149960E94FD03A096E2E10C94C9
:100630000A27A8E1B0E0EFE1F3E00C94FA26698321
:100640007A838B839C832D833E834F83588789E0F5
:10065000E82EF12CEC0EFD1ECE010196B7010E9492
:10066000D2048E010F5E1F4FCE010596B8010E9485
:10067000D2048985823040F08989823028F0C70110
:10068000B8010E944A0501C08FEF6896E6E00C941D
:100690001627A8E1B0E0EFE4F3E00C94FA266983B2
:1006A0007A838B839C832D833E834F83588789E095
:1006B000E82EF12CEC0EFD1ECE010196B7010E9432
:1006C000D2048E010F5E1F4FCE010596B8010E9425
:1006D000D2048985823040F08989823028F0C701B0
:1006E000B8010E944A0501C08FEF6896E6E00C94BD
:1006F0001627A8E1B0E0EFE7F3E00C94FA2669834F
:100700007A838B839C832D833E834F83588789E034
:10071000E82EF12CEC0EFD1ECE010196B7010E94D1
:10072000D2048E010F5E1F4FCE010596B8010E94C4
:10073000D2048985823040F08989823028F0C7014F
:10074000B8010E944A0501C081E06896E6E00C9479
:100750001627ACE0B0E0EFEAF3E00C94FE266983E4
:100760007A838B839C83CE010196BE016B5F7F4FA2
:100770000E94D2048D81823061F1823050F1843048
:1007800021F48E81882351F12EC02F81388537FDC9
:1007900020C06E812F3131051CF06623F9F023C093
:1007A0008EE190E0821B930B29853A854B855C8511
:1007B00004C056954795379527958A95D2F76623B5
:1007C000B1F050954095309521953F4F4F4F5F4F79
:1007D0000EC020E030E040E050E009C02FEF3FEFD6
:1007E0004FEF5FE704C020E030E040E050E8B9019F
:1007F000CA012C96E2E00C941A27DF92EF92FF9246
:100800000F931F93FC01E480F58006811781D1804E
:100810008081823048F480E090E0A0E1B0E0E82AF6
:10082000F92A0A2B1B2BA5C0843009F49FC0823003
:1008300021F4EE24FF24870105C0E114F104010531
:10084000110519F4E0E0F0E096C0628173819FEF3A
:10085000623879070CF05BC022E83FEF261B370BAC
:100860002A3131052CF020E030E040E050E02AC091
:10087000B801A701022E04C0769567955795479554
:100880000A94D2F781E090E0A0E0B0E004C0880FC5
:10089000991FAA1FBB1F2A95D2F70197A109B10979
:1008A0008E219F21A023B1230097A105B10521F03E
:1008B00081E090E0A0E0B0E09A01AB01282B392B59
:1008C0004A2B5B2BDA01C9018F779070A070B07052
:1008D00080349105A105B10539F427FF09C0205CDA
:1008E0003F4F4F4F5F4F04C0215C3F4F4F4F5F4F13
:1008F000E0E0F0E02030A0E03A07A0E04A07A0E402
:100900005A0710F0E1E0F0E079018A0127C0603871
:10091000710564F5FB01E158FF4FD801C7018F77DE
:100920009070A070B07080349105A105B10539F4C4
:10093000E7FE0DC080E490E0A0E0B0E004C08FE3EB
:1009400090E0A0E0B0E0E80EF91E0A1F1B1F17FFA1
:1009500005C016950795F794E794319687E01695AC
:100960000795F794E7948A95D1F705C0EE24FF2404
:100970008701EFEFF0E06E2F679566276795902F60
:100980009F77D794DD24D7948E2F8695492F462BB9
:10099000582F5D29B701CA011F910F91FF90EF9069
:1009A000DF900895FC01DB01408151812281622F9B
:1009B0006F7770E0221F2227221F9381892F880FD3
:1009C000822B282F30E0991F9927991F11969C930D
:1009D000119721153105A9F54115510561057105DD
:1009E00011F482E037C082E89FEF13969C938E93B8
:1009F00012979A01AB0167E0220F331F441F551F66
:100A00006A95D1F783E08C930DC0220F331F441FEA
:100A1000551F12968D919C911397019713969C9355
:100A20008E931297203080E0380780E0480780E4FA
:100A3000580758F314962D933D934D935C93179755
:100A400008952F3F310579F4411551056105710570
:100A500019F484E08C93089564FF03C081E08C93C3
:100A600012C01C9210C02F57304013963C932E9307
:100A7000129783E08C9387E0440F551F661F771F02
:100A80008A95D1F7706414964D935D936D937C9322
:100A9000179708951F93DC01FB019C91923008F495
:100AA00047C08081823008F443C0943051F41196DD
:100AB0001C91843099F58181682F70E0611B710968
:100AC0003FC0843021F0923031F48230B9F181811D
:100AD000882389F12DC011961C9111978230F1F075
:100AE00081811817D9F412962D913C911397828128
:100AF00093818217930794F028173907BCF0149656
:100B00008D919D910D90BC91A02D248135814681C0
:100B10005781281739074A075B0718F4112341F05A
:100B20000AC082179307A407B50740F4112319F0F0
:100B300061E070E005C06FEF7FEF02C060E070E041
:100B4000CB011F910895DF93CF93CDB7DEB7A7E216
:100B5000B0E0E7E2F0E0808180628C93A6E2B0E052
:100B6000E6E2F0E0808187688C93CF91DF91089571
:100B7000DF93CF93CDB7DEB762970FB6F894DEBFA1
:100B80000FBECDBF6F87788B898B9A8BE5E2F0E043
:100B900010828F859889A989BA8987709070A07012
:100BA000B0708F87988BA98BBA8BA7E2B0E0E7E291
:100BB000F0E090818F85892B8C93A6E2B0E0E6E28D
:100BC000F0E0808180648C9380E090E0A8ECB2E457
:100BD0008B879C87AD87BE876B857C858D859E8541
:100BE00020E030E04AEF54E40E941F02DC01CB0118
:100BF0008F839887A987BA876F81788589859A8539
:100C000020E030E040E85FE30E94790388232CF481
:100C100081E090E09E838D833FC06F8178858985D8
:100C20009A8520E03FEF4FE757E40E94190318161A
:100C30004CF56B857C858D859E8520E030E040E21B
:100C400051E40E941F02DC01CB01BC01CD010E94D6
:100C50004900DC01CB019E838D830FC088EC90E0BE
:100C60009C838B838B819C810197F1F79C838B8381
:100C70008D819E8101979E838D838D819E810097BA
:100C800069F714C06F81788589859A850E9449002B
:100C9000DC01CB019E838D838D819E819A83898324
:100CA00089819A810197F1F79A838983A6E2B0E05E
:100CB000E6E2F0E0808180618C93E5E2F0E0808103
:100CC000882F90E062960FB6F894DEBF0FBECDBFBE
:100CD000CF91DF910895AF92BF92CF92DF92EF92C2
:100CE000FF920F93DF93CF93CDB7DEB786E060E03E
:100CF0000E94A00883E461E00E94040B0E94A90BFB
:100D00000E94A30581E062E00E9471199093510155
:100D10008093500180915001909151010097C1F151
:100D200020E630E089EC96E0B90140E951E020E0AE
:100D300030E002E0EE24FF24CC24DD24AA24BB24EE
:100D40000E94E71E2BE630E08EE797E0B90140E90C
:100D500051E020E030E002E0EE24FF24CC24DD244A
:100D6000AA24BB240E94E71E0E941A1A90935301E2
:100D7000809352010E94E02080E090E0CF91DF91CB
:100D80000F91FF90EF90DF90CF90BF90AF900895BC
:100D9000FFCFDF93CF93CDB7DEB765970FB6F8944B
:100DA000DEBF0FBECDBF9D8B8C8B65E070E080E019
:100DB00090E00E94B805998B888B2889398984EF47
:100DC00091E0AC01249FC001259F900D349F900DB0
:100DD00011242FEF30E0B9010E94C726CB019B8B75
:100DE0008A8B80915001909151019E012E5E3F4F60
:100DF000B90148EE53E020E00E94E11A8F878F8509
:100E0000813009F478C00E94D11186E790E00E94F9
:100E1000971080E090E0AAEFB4E48B879C87AD87C1
:100E2000BE876B857C858D859E8520E030E04AEF0E
:100E300054E40E941F02DC01CB018F839887A987AD
:100E4000BA876F81788589859A8520E030E040E80F
:100E50005FE30E94790388232CF481E090E09E8375
:100E60008D833FC06F81788589859A8520E03FEF2B
:100E70004FE757E40E94190318164CF56B857C85E3
:100E80008D859E8520E030E040E251E40E941F0203
:100E9000DC01CB01BC01CD010E944900DC01CB018A
:100EA0009E838D830FC088EC90E09C838B838B8125
:100EB0009C810197F1F79C838B838D819E810197A3
:100EC0009E838D838D819E81009769F714C06F8109
:100ED000788589859A850E944900DC01CB019E8333
:100EE0008D838D819E819A83898389819A810197DF
:100EF000F1F79A8389830E945E1857CFDF93CF93CF
:100F0000CDB7DEB7A1970FB6F894DEBF0FBECDBF49
:100F100099A388A380915001909151010E94F81CDF
:100F20008823C1F380915001909151019E01225E6E
:100F30003F4FB90144E650E020E00E94CC1B8D8F6A
:100F40008D8D813009F083C00E94D11184E890E03A
:100F50000E9497108E8D9F8DAA2797FDA095BA2F7E
:100F6000BC01CD010E943A1180E090E0AAEFB4E408
:100F7000898F9A8FAB8FBC8F698D7A8D8B8D9C8D6D
:100F800020E030E04AEF54E40E941F02DC01CB0174
:100F90008D8B9E8BAF8BB88F6D897E898F89988D55
:100FA00020E030E040E85FE30E94790388232CF4DE
:100FB00081E090E09C8B8B8B3FC06D897E898F890F
:100FC000988D20E03FEF4FE757E40E941903181671
:100FD0004CF5698D7A8D8B8D9C8D20E030E040E260
:100FE00051E40E941F02DC01CB01BC01CD010E9433
:100FF0004900DC01CB019C8B8B8B0FC088EC90E00F
:101000009A8B898B89899A890197F1F79A8B898BB9
:101010008B899C8901979C8B8B8B8B899C890097F2
:1010200069F778CF6D897E898F89988D0E944900F4
:10103000DC01CB019C8B8B8B8B899C89988B8F8758
:101040008F8598890197F1F7988B8F8763CF0E94DE
:10105000D1118AE890E00E94971080E090E0AAEF1A
:10106000B4E48B879C87AD87BE876B857C858D8537
:101070009E8520E030E04AEF54E40E941F02DC012C
:10108000CB018F839887A987BA876F8178858985F7
:101090009A8520E030E040E85FE30E9479038823EE
:1010A0002CF481E090E09E838D833FC06F81788532
:1010B00089859A8520E03FEF4FE757E40E941903A6
:1010C00018164CF56B857C858D859E8520E030E07B
:1010D00040E251E40E941F02DC01CB01BC01CD01C2
:1010E0000E944900DC01CB019E838D830FC088ECF8
:1010F00090E09C838B838B819C810197F1F79C838B
:101100008B838D819E8101979E838D838D819E81AE
:10111000009769F7FFCE6F81788589859A850E944F
:101120004900DC01CB019E838D838D819E819A8352
:10113000898389819A810197F1F79A838983EACE1D
:10114000DF93CF9300D0CDB7DEB789836A838981DF
:10115000803208F0CDC08A81882321F08A818130D5
:1011600009F0C6C08981883070F5AAE3B0E0EAE3EF
:10117000F0E08081482F8981882F90E09C012770C2
:10118000307081E090E002C0880F991F2A95E2F745
:10119000809584238C93AAE3B0E0EAE3F0E08081B9
:1011A000482F8A81282F30E08981882F90E087702E
:1011B0009070B90102C0660F771F8A95E2F7CB01E4
:1011C000842B8C9395C089818850883070F5A7E373
:1011D000B0E0E7E3F0E08081482F8981882F90E03C
:1011E0009C012770307081E090E002C0880F991F49
:1011F0002A95E2F7809584238C93A7E3B0E0E7E398
:10120000F0E08081482F8A81282F30E08981882F63
:1012100090E087709070B90102C0660F771F8A95C1
:10122000E2F7CB01842B8C9363C089818051883095
:1012300070F5A4E3B0E0E4E3F0E08081482F898119
:10124000882F90E09C012770307081E090E002C010
:10125000880F991F2A95E2F7809584238C93A4E345
:10126000B0E0E4E3F0E08081482F8A81282F30E06D
:101270008981882F90E087709070B90102C0660F55
:10128000771F8A95E2F7CB01842B8C9331C089813B
:101290008851883068F5A1E3B0E0E1E3F0E08081B7
:1012A000482F8981882F90E09C012770307081E061
:1012B00090E002C0880F991F2A95E2F78095842359
:1012C0008C93A1E3B0E0E1E3F0E08081482F8A81D4
:1012D000282F30E08981882F90E087709070B901C5
:1012E00002C0660F771F8A95E2F7CB01842B8C939F
:1012F0000F900F90CF91DF910895DF93CF9300D09F
:10130000CDB7DEB789836A838981803208F0CDC08A
:101310008A81882321F08A81813009F0C6C08981C1
:10132000883070F5ABE3B0E0EBE3F0E08081482F6C
:101330008981882F90E09C012770307081E090E0D7
:1013400002C0880F991F2A95E2F7809584238C9319
:10135000ABE3B0E0EBE3F0E08081482F8A81282FF7
:1013600030E08981882F90E087709070B90102C0C9
:10137000660F771F8A95E2F7CB01842B8C9395C07B
:1013800089818850883070F5A8E3B0E0E8E3F0E0A8
:101390008081482F8981882F90E09C0127703070D0
:1013A00081E090E002C0880F991F2A95E2F78095AE
:1013B00084238C93A8E3B0E0E8E3F0E08081482F39
:1013C0008A81282F30E08981882F90E08770907083
:1013D000B90102C0660F771F8A95E2F7CB01842B13
:1013E0008C9363C089818051883070F5A5E3B0E0AB
:1013F000E5E3F0E08081482F8981882F90E09C010F
:101400002770307081E090E002C0880F991F2A9504
:10141000E2F7809584238C93A5E3B0E0E5E3F0E068
:101420008081482F8A81282F30E08981882F90E0A1
:1014300087709070B90102C0660F771F8A95E2F736
:10144000CB01842B8C9331C089818851883068F519
:10145000A2E3B0E0E2E3F0E08081482F8981882FA9
:1014600090E09C012770307081E090E002C0880F0E
:10147000991F2A95E2F7809584238C93A2E3B0E02C
:10148000E2E3F0E08081482F8A81282F30E08981D3
:10149000882F90E087709070B90102C0660F771FA7
:1014A0008A95E2F7CB01842B8C930F900F90CF910C
:1014B000DF910895DF93CF9300D0CDB7DEB78A8355
:1014C0008A81803208F09AC08A81883018F5E9E371
:1014D000F0E08081482F50E08A81882F90E09C01C5
:1014E0002770307081E090E002C0880F991F2A9524
:1014F000E2F79A01282339238A81882F90E08770A8
:101500009070A90102C0559547958A95E2F7CA01E6
:10151000898374C08A818850883018F5E6E3F0E04A
:101520008081482F50E08A81882F90E09C012770AD
:10153000307081E090E002C0880F991F2A95E2F791
:101540009A01282339238A81882F90E08770907030
:10155000A90102C0559547958A95E2F7CA0189838A
:101560004DC08A818051883018F5E3E3F0E0808136
:10157000482F50E08A81882F90E09C0127703070BE
:1015800081E090E002C0880F991F2A95E2F79A0146
:10159000282339238A81882F90E087709070A901D1
:1015A00002C0559547958A95E2F7CA01898326C0FE
:1015B0008A818851883010F5E0E3F0E08081482F7F
:1015C00050E08A81882F90E09C012770307081E084
:1015D00090E002C0880F991F2A95E2F79A0128230C
:1015E00039238A81882F90E087709070A90102C00A
:1015F000559547958A95E2F7CA01898389810F90AD
:101600000F90CF91DF910895DF93CF9300D0CDB7A6
:10161000DEB789836A838981813471F48A8181305C
:1016200029F4EAE3F0E08FEF808306C08A81882303
:1016300019F4EAE3F0E010828981813471F48A813F
:10164000813029F4EAE3F0E08FEF808306C08A81DD
:10165000882319F4EAE3F0E010828981823471F47E
:101660008A81813029F4E7E3F0E08FEF808306C0C0
:101670008A81882319F4E7E3F0E0108289818334BA
:1016800071F48A81813029F4E4E3F0E08FEF808304
:1016900006C08A81882319F4E4E3F0E0108289818E
:1016A000843471F48A81813029F4E1E3F0E08FEF32
:1016B000808306C08A81882319F4E1E3F0E0108278
:1016C0000F900F90CF91DF910895DF93CF9300D0CB
:1016D000CDB7DEB789836A838981813421F4EBE356
:1016E000F0E08A8180838981823421F4E8E3F0E0AC
:1016F0008A8180838981833421F4E5E3F0E08A8163
:1017000080838981843421F4E2E3F0E08A8180835C
:101710000F900F90CF91DF910895DF93CF93CDB7C6
:10172000DEB7AFE5B0E0EFE5F0E0808180688C9354
:10173000ABE5B0E0EBE5F0E08081806C8C93A5E553
:10174000B0E0E5E5F0E080818E608C93CF91DF9191
:1017500008950F931F93DF93CF93CDB7DEB7C45592
:10176000D0400FB6F894DEBF0FBECDBF80E061E081
:101770000E94A00881E061E00E94A00882E061E090
:101780000E94A00883E461E00E94040BFE01EF5A6E
:10179000FF4F80E090E0A8E4B2E480839183A283CD
:1017A000B3838E01035B1F4FFE01EF5AFF4F608131
:1017B00071818281938120E030E04AEF54E40E94FD
:1017C0001F02DC01CB01F80180839183A283B383E4
:1017D000FE01E35BFF4F608171818281938120E094
:1017E00030E040E85FE30E947903882344F4FE017F
:1017F000E55BFF4F81E090E09183808364C0FE0150
:10180000E35BFF4F608171818281938120E03FEF34
:101810004FE757E40E94190318160CF043C0FE016D
:10182000EF5AFF4F608171818281938120E030E027
:1018300040E251E40E941F02DC01CB018E01055BF6
:101840001F4FBC01CD010E944900DC01CB01F80112
:10185000918380831FC0FE01E75BFF4F88EC90E01F
:1018600091838083FE01E75BFF4F80819181019727
:10187000F1F7FE01E75BFF4F91838083DE01A55BFB
:10188000BF4FFE01E55BFF4F80819181019711966B
:101890009C938E93FE01E55BFF4F808191810097C1
:1018A000D1F627C08E01055B1F4FFE01E35BFF4FA2
:1018B00060817181828193810E944900DC01CB01AA
:1018C000F80191838083DE01A95BBF4FFE01E55BD8
:1018D000FF4F808191818D939C93FE01E95BFF4FC7
:1018E000808191810197F1F7FE01E95BFF4F9183C0
:1018F000808381E00E94E10EFE01ED5BFF4F80E0FE
:1019000090E0A0E2B1E480839183A283B3838E014F
:10191000015C1F4FFE01ED5BFF4F60817181828191
:10192000938120E030E04AEF54E40E941F02DC0182
:10193000CB01F80180839183A283B383FE01FF96DC
:10194000608171818281938120E030E040E85FE333
:101950000E94790388232CF481E090E09EAF8DAF44
:1019600046C0FE01FF96608171818281938120E0F3
:101970003FEF4FE757E40E941903181664F5FE0184
:10198000ED5BFF4F608171818281938120E030E0C7
:1019900040E251E40E941F02DC01CB01BC01CD01F9
:1019A0000E944900DC01CB019EAF8DAF0FC088ECD7
:1019B00090E09CAF8BAF8BAD9CAD0197F1F79CAFE6
:1019C0008BAF8DAD9EAD01979EAF8DAF8DAD9EADB2
:1019D000009769F716C0FE01FF96608171818281D0
:1019E00093810E944900DC01CB019EAF8DAF8DAD8C
:1019F0009EAD9AAF89AF89AD9AAD0197F1F79AAFD5
:101A000089AF82E00E94E10E80E090E0A0E2B1E4C4
:101A10008DAB9EABAFABB8AF6DA97EA98FA998ADCA
:101A200020E030E04AEF54E40E941F02DC01CB01C9
:101A300089AB9AABABABBCAB69A97AA98BA99CA9C2
:101A400020E030E040E85FE30E94790388232CF433
:101A500081E090E098AB8FA73FC069A97AA98BA9D4
:101A60009CA920E03FEF4FE757E40E9419031816A6
:101A70004CF56DA97EA98FA998AD20E030E040E239
:101A800051E40E941F02DC01CB01BC01CD010E9488
:101A90004900DC01CB0198AB8FA70FC088EC90E028
:101AA0009EA78DA78DA59EA50197F1F79EA78DA74F
:101AB0008FA598A9019798AB8FA78FA598A9009794
:101AC00069F714C069A97AA98BA99CA90E94490049
:101AD000DC01CB0198AB8FA78FA598A99CA78BA7FA
:101AE0008BA59CA50197F1F79CA78BA786E00E9488
:101AF000E10E80E090E0A0E2B1E48FA398A7A9A74F
:101B0000BAA76FA178A589A59AA520E030E04AEF91
:101B100054E40E941F02DC01CB018BA39CA3ADA364
:101B2000BEA36BA17CA18DA19EA120E030E040E886
:101B30005FE30E94790388232CF481E090E09AA36C
:101B400089A33FC06BA17CA18DA19EA120E03FEFA6
:101B50004FE757E40E94190318164CF56FA178A5BA
:101B600089A59AA520E030E040E251E40E941F02DE
:101B7000DC01CB01BC01CD010E944900DC01CB019D
:101B80009AA389A30FC088EC90E098A38F8F8F8DC4
:101B900098A10197F1F798A38F8F89A19AA1019736
:101BA0009AA389A389A19AA1009769F714C06BA190
:101BB0007CA18DA19EA10E944900DC01CB019AA3CA
:101BC00089A389A19AA19E8F8D8F8D8D9E8D01975E
:101BD000F1F79E8F8D8F8EE00E94E10E80E090E005
:101BE000A0E2B1E4898F9A8FAB8FBC8F698D7A8D1B
:101BF0008B8D9C8D20E030E04AEF54E40E941F0260
:101C0000DC01CB018D8B9E8BAF8BB88F6D897E896C
:101C10008F89988D20E030E040E85FE30E947903EF
:101C200088232CF481E090E09C8B8B8B3FC06D89E6
:101C30007E898F89988D20E03FEF4FE757E40E941F
:101C4000190318164CF5698D7A8D8B8D9C8D20E0CB
:101C500030E040E251E40E941F02DC01CB01BC01F4
:101C6000CD010E944900DC01CB019C8B8B8B0FC006
:101C700088EC90E09A8B898B89899A890197F1F792
:101C80009A8B898B8B899C8901979C8B8B8B8B89F9
:101C90009C89009769F714C06D897E898F89988D1A
:101CA0000E944900DC01CB019C8B8B8B8B899C892A
:101CB000988B8F878F8598890197F1F7988B8F87FD
:101CC00088E30E94E10E80E090E0A0E2B1E48B871F
:101CD0009C87AD87BE876B857C858D859E8520E042
:101CE00030E04AEF54E40E941F02DC01CB018F83F5
:101CF0009887A987BA876F81788589859A8520E03A
:101D000030E040E85FE30E94790388232CF481E00F
:101D100090E09E838D833FC06F81788589859A8509
:101D200020E03FEF4FE757E40E94190318164CF5E7
:101D30006B857C858D859E8520E030E040E251E416
:101D40000E941F02DC01CB01BC01CD010E944900B1
:101D5000DC01CB019E838D830FC088EC90E09C83D7
:101D60008B838B819C810197F1F79C838B838D8181
:101D70009E8101979E838D838D819E81009769F757
:101D800014C06F81788589859A850E944900DC019D
:101D9000CB019E838D838D819E819A8389838981E6
:101DA0009A810197F1F79A838983CC5ADF4F0FB656
:101DB000F894DEBF0FBECDBFCF91DF911F910F9181
:101DC0000895DF93CF93CDB7DEB72F970FB6F89472
:101DD000DEBF0FBECDBF8F8780E090E060E070E097
:101DE0000E947D0981E090E060E070E00E947D0942
:101DF00083E46F850E94650B82E090E061E070E013
:101E00000E947D0980E090E0A0E0B0E48B879C8791
:101E1000AD87BE876B857C858D859E8520E030E013
:101E20004AEF54E40E941F02DC01CB018F839887A4
:101E3000A987BA876F81788589859A8520E030E007
:101E400040E85FE30E94790388232CF481E090E06E
:101E50009E838D833FC06F81788589859A8520E038
:101E60003FEF4FE757E40E94190318164CF56B85B6
:101E70007C858D859E8520E030E040E251E40E9423
:101E80001F02DC01CB01BC01CD010E944900DC0135
:101E9000CB019E838D830FC088EC90E09C838B8365
:101EA0008B819C810197F1F79C838B838D819E812F
:101EB00001979E838D838D819E81009769F714C061
:101EC0006F81788589859A850E944900DC01CB0164
:101ED0009E838D838D819E819A83898389819A8156
:101EE0000197F1F79A83898382E090E060E070E0E7
:101EF0000E947D092F960FB6F894DEBF0FBECDBFAE
:101F0000CF91DF910895DF93CF93CDB7DEB76D9773
:101F10000FB6F894DEBF0FBECDBF8D8F80E090E08E
:101F200061E070E00E947D0981E090E060E070E097
:101F30000E947D0982E090E061E070E00E947D09EE
:101F400083E46D8D0E94650B80E090E0A0E0B0E43A
:101F5000898F9A8FAB8FBC8F698D7A8D8B8D9C8D7D
:101F600020E030E04AEF54E40E941F02DC01CB0184
:101F70008D8B9E8BAF8BB88F6D897E898F89988D65
:101F800020E030E040E85FE30E94790388232CF4EE
:101F900081E090E09C8B8B8B3FC06D897E898F891F
:101FA000988D20E03FEF4FE757E40E941903181681
:101FB0004CF5698D7A8D8B8D9C8D20E030E040E270
:101FC00051E40E941F02DC01CB01BC01CD010E9443
:101FD0004900DC01CB019C8B8B8B0FC088EC90E01F
:101FE0009A8B898B89899A890197F1F79A8B898BCA
:101FF0008B899C8901979C8B8B8B8B899C89009703
:1020000069F714C06D897E898F89988D0E94490077
:10201000DC01CB019C8B8B8B8B899C89988B8F8768
:102020008F8598890197F1F7988B8F8782E090E0F0
:1020300060E070E00E947D0980E090E0A0EAB0E4FA
:102040008B879C87AD87BE876B857C858D859E85BC
:1020500020E030E04AEF54E40E941F02DC01CB0193
:102060008F839887A987BA876F81788589859A85B4
:1020700020E030E040E85FE30E94790388232CF4FD
:1020800081E090E09E838D833FC06F817885898554
:102090009A8520E03FEF4FE757E40E941903181696
:1020A0004CF56B857C858D859E8520E030E040E297
:1020B00051E40E941F02DC01CB01BC01CD010E9452
:1020C0004900DC01CB019E838D830FC088EC90E03A
:1020D0009C838B838B819C810197F1F79C838B83FD
:1020E0008D819E8101979E838D838D819E81009736
:1020F00069F714C06F81788589859A850E944900A7
:10210000DC01CB019E838D838D819E819A8389839F
:1021100089819A810197F1F79A8389836D960FB629
:10212000F894DEBF0FBECDBFCF91DF910895DF934E
:10213000CF93CDB7DEB761970FB6F894DEBF0FBE71
:10214000CDBF998B888B1F8680C08F85282F30E06C
:1021500088899989FC01E20FF31F80810E94830F17
:102160008F858F5F8F8780E090E0A0E0B0E48B8761
:102170009C87AD87BE876B857C858D859E8520E09D
:1021800030E04AEF54E40E941F02DC01CB018F8350
:102190009887A987BA876F81788589859A8520E095
:1021A00030E040E85FE30E94790388232CF481E06B
:1021B00090E09E838D833FC06F81788589859A8565
:1021C00020E03FEF4FE757E40E94190318164CF543
:1021D0006B857C858D859E8520E030E040E251E472
:1021E0000E941F02DC01CB01BC01CD010E9449000D
:1021F000DC01CB019E838D830FC088EC90E09C8333
:102200008B838B819C810197F1F79C838B838D81DC
:102210009E8101979E838D838D819E81009769F7B2
:1022200014C06F81788589859A850E944900DC01F8
:10223000CB019E838D838D819E819A838983898141
:102240009A810197F1F79A8389838F85282F30E04F
:1022500088899989FC01E20FF31F8081882309F0A6
:1022600074CF61960FB6F894DEBF0FBECDBFCF918D
:10227000DF910895DF93CF93CDB7DEB765970FB6A3
:10228000F894DEBF0FBECDBF6A8B7B8B8C8B9D8B92
:102290008A899B899E01215F3F4FB9014AE050E046
:1022A0000E944928CE010F960E94971080E090E08E
:1022B000A0E0B0E48B879C87AD87BE876B857C856B
:1022C0008D859E8520E030E04AEF54E40E941F0295
:1022D000DC01CB018F839887A987BA876F817885C6
:1022E00089859A8520E030E040E85FE30E94790329
:1022F00088232CF481E090E09E838D833FC06F8122
:10230000788589859A8520E03FEF4FE757E40E9462
:10231000190318164CF56B857C858D859E8520E00C
:1023200030E040E251E40E941F02DC01CB01BC011D
:10233000CD010E944900DC01CB019E838D830FC03B
:1023400088EC90E09C838B838B819C810197F1F7D3
:102350009C838B838D819E8101979E838D838D814C
:102360009E81009769F714C06F81788589859A8569
:102370000E944900DC01CB019E838D838D819E816B
:102380009A83898389819A810197F1F79A83898356
:1023900065960FB6F894DEBF0FBECDBFCF91DF912B
:1023A0000895DF93CF93CDB7DEB72E970FB6F8948D
:1023B000DEBF0FBECDBF81E00E94E10E80E090E065
:1023C000A0E2B1E48B879C87AD87BE876B857C8557
:1023D0008D859E8520E030E04AEF54E40E941F0284
:1023E000DC01CB018F839887A987BA876F817885B5
:1023F00089859A8520E030E040E85FE30E94790318
:1024000088232CF481E090E09E838D833FC06F8110
:10241000788589859A8520E03FEF4FE757E40E9451
:10242000190318164CF56B857C858D859E8520E0FB
:1024300030E040E251E40E941F02DC01CB01BC010C
:10244000CD010E944900DC01CB019E838D830FC02A
:1024500088EC90E09C838B838B819C810197F1F7C2
:102460009C838B838D819E8101979E838D838D813B
:102470009E81009769F714C06F81788589859A8558
:102480000E944900DC01CB019E838D838D819E815A
:102490009A83898389819A810197F1F79A83898345
:1024A0002E960FB6F894DEBF0FBECDBFCF91DF9151
:1024B0000895DF93CF93CDB7DEB727970FB6F89483
:1024C000DEBF0FBECDBF9D838C836E834F838AE1B9
:1024D00090E00E9431159A83898389819A810097BF
:1024E00009F46FC08091B2009091B300009741F45D
:1024F00089819A819093B3008093B2000E94C014A6
:102500008E81823010F081E08E83E981FA81118E14
:10251000108EE981FA818E81868BE981FA818F8123
:10252000878BE981FA818C819D8191838083898168
:102530009A8102960E948E1589819A810C960E943A
:102540008E15E981FA8189819A8191878087E98155
:10255000FA8189819A81938B828B8E81282F30E03A
:1025600085E090E0821B930BE981FA81958784874F
:10257000E981FA8196898091B400891728F4E9816C
:10258000FA8186898093B400E981FA818689282FAF
:1025900030E0C901880F991F880F991F880F991F74
:1025A000820F931FAC0145545F4F89819A819C0132
:1025B0002E5F3F4FCA01B9010E949E1581E08B83B7
:1025C00002C08FEF8B838B8127960FB6F894DEBF06
:1025D0000FBECDBFCF91DF910895DF93CF9300D091
:1025E00000D000D0CDB7DEB79C838B837E836D8314
:1025F0002091B5003091B6008B819C81820F931F92
:102600009A8389838091B2009091B30002960E94D0
:102610005616E091B200F091B30089819A819383BC
:1026200082832091B5003091B60089819A8182170A
:10263000930770F48091E1009091E2002091B20044
:102640003091B3002E5F3F4FB9010E94EA150DC0D3
:102650008091DF009091E0002091B2003091B300B2
:102660002E5F3F4FB9010E94EA158D819E81009730
:1026700061F08091B2009091B3009C01245F3F4FC4
:102680008D819E81B9010E94EA1526960FB6F894B5
:10269000DEBF0FBECDBFCF91DF910895DF93CF9303
:1026A00000D0CDB7DEB73AC0F894E091E800F091E1
:1026B000E900868197819A83898389819A810C9622
:1026C0000E945616789489819A8102960E94561625
:1026D000E981FA8196898091B400891728F4E9810B
:1026E000FA8186898093B400E981FA818689282F4E
:1026F00030E0C901880F991F880F991F880F991F13
:10270000820F931FAC0145545F4F89819A819C01D0
:102710002E5F3F4FCA01B9010E949E158091E300D0
:10272000882309F0C1CF0F900F90CF91DF910895CA
:10273000DF93CF9300D000D0CDB7DEB70E94B92190
:102740002091B7003091B800821B930B9093BA0090
:102750008093B90085C08091B5009091B600019634
:102760009093B6008093B5008091B9009091BA0023
:1027700001979093BA008093B9008091B500909131
:10278000B600009709F064C08091DF009091E000EE
:102790009A8389838091E1009091E2009093E00018
:1027A0008093DF0089819A819093E2008093E10019
:1027B0004FC0E091DF00F091E0000580F681E02D50
:1027C000868197819C838B83EB81FC81228133817D
:1027D0008091B5009091B6008217930708F440C02D
:1027E000F8948B819C8102960E945616EB81FC81A5
:1027F00084899589009729F08B819C810C960E9491
:1028000056167894EB81FC8196898091B4008917E3
:1028100028F4EB81FC8186898093B400EB81FC81F4
:102820008689282F30E0C901880F991F880F991FCA
:10283000880F991F820F931FAC0145545F4F8B8106
:102840009C819C012E5F3F4FCA01B9010E949E15D9
:10285000E091DF00F091E0008081882309F0A9CFAA
:102860008091B9009091BA00009709F074CF8091DF
:10287000B5009091B6009093B8008093B7000F9088
:102880000F900F900F90CF91DF910895DF93CF932A
:1028900000D0CDB7DEB70E944E130E9498130AC035
:1028A0008091B400882309F466C08091B4008150FF
:1028B0008093B4008091B400282F30E0C901880FC4
:1028C000991F880F991F880F991F820F931FFC0172
:1028D000E554FF4F8081882319F38091B400282F9D
:1028E00030E0C901880F991F880F991F880F991F21
:1028F000820F931F85549F4F9A838983E981FA81C0
:102900000180F281E02D82819381E981FA819283B5
:102910008183E981FA812181328189819A810396BB
:102920002817390759F4E981FA810180F281E02DF5
:1029300082819381E981FA8192838183E981FA819D
:102940000180F281E02D868197819093B30080937E
:10295000B200E091B200F091B300408151818091CA
:10296000B2009091B300E091B200F091B3002789DA
:10297000622FFA0109950F900F90CF91DF91089582
:10298000DF93CF930F92CDB7DEB7198213C0898141
:10299000282F30E0C901880F991F880F991F880FD1
:1029A000991F820F931F85549F4F0E946415898140
:1029B0008F5F89838981823050F38DEC90E00E9493
:1029C000641586ED90E00E94641583EE90E00E940D
:1029D00064158DEC90E09093E0008093DF0086ED2D
:1029E00090E09093E2008093E1000F90CF91DF910F
:1029F0000895DF93CF9300D000D00F92CDB7DEB70C
:102A00009D838C83EC81FD810580F681E02D86819C
:102A100097819B838A838A819B810C960E9456169C
:102A20008A819B819C01245F3F4F83EE90E0B90136
:102A30000E949E15EA81FB819689E091B200F09197
:102A4000B3008689981718F081E0898301C0198244
:102A500089810F900F900F900F900F90CF91DF9181
:102A60000895DF93CF9300D000D0CDB7DEB79C831D
:102A70008B830E9423218B819C810E9425279A832E
:102A800089830E942F2189819A810F900F900F9046
:102A90000F90CF91DF910895DF93CF9300D0CDB702
:102AA000DEB79A83898389819A81009741F00E94D9
:102AB000232189819A810E94D2270E942F210F9081
:102AC0000F90CF91DF910895DF93CF9300D0CDB7D2
:102AD000DEB79A83898389819A810396E981FA8195
:102AE00092838183E981FA818FEF9FEF94838383BF
:102AF00089819A810396E981FA8196838583898108
:102B00009A810396E981FA8190878783E981FA8126
:102B100010820F900F90CF91DF910895DF93CF93A4
:102B200000D0CDB7DEB79A838983E981FA81118617
:102B300010860F900F90CF91DF910895DF93CF9380
:102B400000D000D000D0CDB7DEB79C838B837E83CE
:102B50006D83EB81FC81818192819A838983E981F4
:102B6000FA8182819381ED81FE8193838283EB815F
:102B7000FC8181819281ED81FE8195838483E9814D
:102B8000FA810280F381E02D8D819E81958384837B
:102B90008D819E81E981FA81938382838D819E81DB
:102BA000EB81FC8192838183ED81FE818B819C810D
:102BB00091878087EB81FC8180818F5FEB81FC8135
:102BC000808326960FB6F894DEBF0FBECDBFCF919F
:102BD000DF910895DF93CF93CDB7DEB728970FB677
:102BE000F894DEBF0FBECDBF9E838D8378876F8341
:102BF000EF81F885808191819A83898389819A8187
:102C00002FEF8F3F920739F4ED81FE818781908508
:102C10009C838B8318C08D819E8103969C838B83BC
:102C200006C0EB81FC81828193819C838B83EB8145
:102C3000FC810280F381E02D2081318189819A819C
:102C40008217930770F7EB81FC8182819381EF817A
:102C5000F88593838283EF81F8850280F381E02DEC
:102C60008F81988595838483EF81F8858B819C8102
:102C7000958384838F819885EB81FC819383828304
:102C8000EF81F8858D819E8191878087ED81FE811E
:102C900080818F5FED81FE81808328960FB6F89446
:102CA000DEBF0FBECDBFCF91DF910895DF93CF93ED
:102CB00000D000D0CDB7DEB79C838B83EB81FC8145
:102CC000A281B381EB81FC818481958115969C93CF
:102CD0008E931497EB81FC81A481B581EB81FC81FB
:102CE0008281938113969C938E931297EB81FC8142
:102CF000808591859A838983E981FA812181328156
:102D00008B819C812817390741F4EB81FC818481F8
:102D10009581E981FA8192838183EB81FC8111861F
:102D20001086E981FA8180818150E981FA8180836E
:102D30000F900F900F900F90CF91DF910895DF9338
:102D4000CF93CDB7DEB728970FB6F894DEBF0FBE8E
:102D5000CDBF9C838B837E836D8358874F83EB81AC
:102D6000FC8181E180838B819C8101979C838B8393
:102D7000EB81FC8182E280838B819C8101979C8323
:102D80008B83EB81FC8183E380838B819C81019722
:102D90009C838B838D819E819A8389838981EB813A
:102DA000FC8180838B819C8101979C838B838981AB
:102DB0009A81892F99279A8389838981EB81FC8164
:102DC00080838B819C8101979C838B83EB81FC8129
:102DD00010828B819C8101979C838B83EB81FC818A
:102DE00080E880838B819C8101979C838B83EB811E
:102DF000FC8110828B819C8101979C838B83EB816A
:102E0000FC8182E080838B819C8101979C838B83F2
:102E1000EB81FC8183E080838B819C8101979C8383
:102E20008B83EB81FC8184E080838B819C81019783
:102E30009C838B83EB81FC8185E080838B819C81EB
:102E400001979C838B83EB81FC8186E080838B815F
:102E50009C8101979C838B83EB81FC8187E080833D
:102E60008B819C8101979C838B83EB81FC8188E023
:102E700080838B819C8101979C838B83EB81FC8178
:102E800089E080838B819C8101979C838B83EB817C
:102E9000FC8180E180838B819C8101979C838B8363
:102EA000EB81FC8181E180838B819C8101979C83F4
:102EB0008B83EB81FC8182E180838B819C810197F4
:102EC0009C838B83EB81FC8183E180838B819C815C
:102ED00001979C838B83EB81FC8184E180838B81D0
:102EE0009C8101979C838B83EB81FC8185E18083AE
:102EF0008B819C8101979C838B83EB81FC8186E194
:102F000080838B819C8101979C838B83EB81FC81E7
:102F100087E180838B819C8101979C838B83EB81EC
:102F2000FC8188E180838B819C8101979C838B83CA
:102F3000EB81FC8189E180838B819C8101979C835B
:102F40008B83EB81FC8180E280838B819C81019764
:102F50009C838B83EB81FC8181E280838B819C81CC
:102F600001979C838B83EB81FC8182E280838B8140
:102F70009C8101979C838B83EB81FC8183E280831E
:102F80008B819C8101979C838B838F8198859A8309
:102F900089838981EB81FC8180838B819C8101976E
:102FA0009C838B8389819A81892F99279A8389832E
:102FB0008981EB81FC8180838B819C8101979C833B
:102FC0008B83EB81FC8186E280838B819C810197DE
:102FD0009C838B83EB81FC8187E280838B819C8146
:102FE00001979C838B83EB81FC8188E280838B81BA
:102FF0009C8101979C838B83EB81FC8189E2808398
:103000008B819C8101979C838B83EB81FC8180E386
:1030100080838B819C8101979C838B83EB81FC81D6
:1030200081E380838B819C8101979C838B838B813F
:103030009C8128960FB6F894DEBF0FBECDBFCF910E
:10304000DF910895DF93CF93CDB7DEB70E941219B9
:10305000A091EC00B091ED00CD91CDBFDD91DEBF30
:10306000FF91EF91DF91CF91BF91AF919F918F91A0
:103070007F916F915F914F913F912F911F910F9190
:10308000FF90EF90DF90CF90BF90AF909F908F9088
:103090007F906F905F904F903F902F901F900F9078
:1030A0000FBE0F90089581E0CF91DF910895DF93D7
:1030B000CF93CDB7DEB7CF91DF9108950F920FB6C2
:1030C000F8940F921F9211242F923F924F925F9289
:1030D0006F927F928F929F92AF92BF92CF92DF9228
:1030E000EF92FF920F931F932F933F934F935F9312
:1030F0006F937F938F939F93AF93BF93CF93DF9300
:10310000EF93FF93A091EC00B091ED000DB60D92FE
:103110000EB60D920E94C322A091EC00B091ED007A
:10312000CD91CDBFDD91DEBFFF91EF91DF91CF91CA
:10313000BF91AF919F918F917F916F915F914F91CF
:103140003F912F911F910F91FF90EF90DF90CF90C3
:10315000BF90AF909F908F907F906F905F904F90B7
:103160003F902F901F900F900FBE0F9008950F92D9
:103170000FB6F8940F921F9211242F923F924F9204
:103180005F926F927F928F929F92AF92BF92CF92F7
:10319000DF92EF92FF920F931F932F933F934F93E2
:1031A0005F936F937F938F939F93AF93BF93CF93CF
:1031B000DF93EF93FF93A091EC00B091ED000DB67B
:1031C0000D920EB60D920E94EE210E94C322A09194
:1031D000EC00B091ED00CD91CDBFDD91DEBFFF9150
:1031E000EF91DF91CF91BF91AF919F918F917F919F
:1031F0006F915F914F913F912F911F910F91FF9090
:10320000EF90DF90CF90BF90AF909F908F907F9086
:103210006F905F904F903F902F901F900F900FBE38
:103220000F900895DF93CF9300D000D000D0CDB79A
:10323000DEB780E898E3A1E0B0E08B839C83AD83A8
:10324000BE838B819C81AD81BE81689415F8B69553
:10325000A795979587951694D1F78B839C83AD831B
:10326000BE838B819C81AD81BE810197A109B1098B
:103270008B839C83AD83BE838B8189838B819C816F
:10328000AD81BE81892F9A2FAB2FBB278B839C8367
:10329000AD83BE838B818A83EBE4F0E08A818083F7
:1032A000EAE4F0E0898180838BE08983EEE4F0E05A
:1032B00089818083E9E5F0E080818983898180616B
:1032C0008983E9E5F0E08981808326960FB6F8943A
:1032D000DEBF0FBECDBFCF91DF9108950E94B7181A
:1032E0001895DF93CF93CDB7DEB728970FB6F89434
:1032F000DEBF0FBECDBF8F8368871A8219828F8190
:10330000882309F48CC08FE190E00E9431159E83E0
:103310008D838D819E81009709F481C08F81282F34
:1033200030E08885882F90E0AC01249FC001259F64
:10333000900D349F900D112401969C838B838B817B
:103340009C810E943115ED81FE8191838083ED8106
:10335000FE8180819181009709F45DC0ED81FE813D
:10336000408151818F81282F30E08885882F90E01F
:10337000BC01269FC001279F900D369F900D112400
:10338000840F951FED81FE8193838283ED81FE8101
:10339000128EED81FE8180819181ED81FE81958388
:1033A0008483ED81FE81408151818F81882F90E05F
:1033B0009C01215030408885882F90E0BC01269FD9
:1033C000C001279F900D369F900D1124840F951FEB
:1033D000ED81FE8197838683ED81FE818F81838FCE
:1033E000ED81FE818885848FED81FE818FEF858F51
:1033F000ED81FE818FEF868F8D819E8108960E94E0
:1034000064158D819E8141960E9464158D819E81F7
:103410009A83898304C08D819E810E944C15898185
:103420009A8128960FB6F894DEBF0FBECDBFCF911C
:10343000DF910895DF93CF9300D0CDB7DEB78FE152
:1034400090E00E9431159A83898389819A8100973F
:10345000A9F1E981FA8113821282E981FA8111824C
:103460001082E981FA8115821482E981FA8117823A
:103470001682E981FA81128EE981FA8181E0838FD7
:10348000E981FA81148EE981FA818FEF858FE981D4
:10349000FA818FEF868F89819A8108960E94641540
:1034A00089819A8141960E94641589819A8160E0A0
:1034B00070E040E050E020E00E94E11A89819A81AA
:1034C0000F900F90CF91DF9108950F931F93DF938B
:1034D000CF9300D00F92CDB7DEB79B838A83EA816A
:1034E000FB81028113810E94D62508171907D9F4A0
:1034F000EA81FB81868197810197EA81FB8197832D
:103500008683EA81FB8186819781009749F48A81CD
:103510009B8160E070E040E050E020E00E94E11A12
:1035200081E0898301C0198289810F900F900F90EB
:10353000CF91DF911F910F9108950F931F93DF9308
:10354000CF9300D000D00F92CDB7DEB79B838A8394
:103550007D836C83EA81FB81028113810E94D625E1
:103560000817190761F4EA81FB818681978101962A
:10357000EA81FB819783868381E0898317C08A81F2
:103580009B812C813D8160E070E0A90120E00E94D8
:10359000CC1B89838981813049F4EA81FB81868152
:1035A00097810196EA81FB819783868389810F90B9
:1035B0000F900F900F900F90CF91DF911F910F916F
:1035C0000895DF93CF93CDB7DEB72C970FB6F8945D
:1035D000DEBF0FBECDBF9E838D8378876F835A87F2
:1035E00049872B8719820FB6F8940F92ED81FE81DF
:1035F000928DED81FE81838D9817D8F48D819E8107
:103600002F813885B9014B850E94391DED81FE81DE
:103610008189882349F08D819E8141960E945F2394
:10362000813011F40E945E180F900FBE81E08C87EC
:103630005CC089859A85009721F40F900FBE1C8687
:1036400054C08981882331F4CE0102960E94C72399
:1036500081E089830F900FBE0E9423210FB6F8945A
:103660000F92ED81FE81858D8F3F19F4ED81FE81F2
:10367000158EED81FE81868D8F3F19F4ED81FE81DF
:10368000168E0F900FBECE0102969E01275F3F4F10
:10369000B9010E94E023882309F58D819E810E9453
:1036A000AE1E8823A1F08D819E81089629853A85DA
:1036B000B9010E9429238D819E810E94271E0E94AC
:1036C0002F21882309F08FCF0E945E188CCF8D8127
:1036D0009E810E94271E0E942F2185CF8D819E8171
:1036E0000E94271E0E942F211C868C852C960FB6C7
:1036F000F894DEBF0FBECDBFCF91DF910895DF9369
:10370000CF93CDB7DEB729970FB6F894DEBF0FBEC3
:10371000CDBF9C838B837E836D8358874F8329879E
:103720001982EB81FC81928DEB81FC81838D98174E
:1037300040F58B819C812D813E81B90149850E9494
:10374000391DEB81FC81868D8F3F89F4EB81FC81F3
:103750008189882399F08B819C8141960E945F2307
:10376000882361F0EF81F88581E0808307C0EB81D9
:10377000FC81868D8F5FEB81FC81868F81E08A835F
:1037800001C01A828A8129960FB6F894DEBF0FBE57
:10379000CDBFCF91DF910895DF93CF93CDB7DEB743
:1037A0002E970FB6F894DEBF0FBECDBF98878F83DC
:1037B0007A8769875C874B872D871B820FB6F894C1
:1037C0000F92EF81F885828D882309F44BC0EF8139
:1037D000F885868197819A8389838F819885298549
:1037E0003A85B9010E94DF1D8D85882311F5EF818F
:1037F000F885828D8150EF81F885828FEF81F88581
:1038000080819181009731F40E94D625EF81F8855F
:1038100093838283EF81F88580858823F1F08F81FF
:10382000988508960E945F238130B9F40E945E1843
:1038300014C0EF81F88589819A8197838683EF810F
:10384000F8858189882349F08F81988541960E9467
:103850005F23882311F00E945E180F900FBE81E055
:103860008E876DC08B859C85009721F40F900FBECD
:103870001E8665C08B81882331F4CE0104960E9498
:10388000C72381E08B830F900FBE0E9423210FB6C8
:10389000F8940F92EF81F885858D8F3F19F4EF81B1
:1038A000F885158EEF81F885868D8F3F19F4EF81AD
:1038B000F885168E0F900FBECE0104969E01255FEF
:1038C0003F4FB9010E94E023882391F58F819885AD
:1038D0000E947B1E882329F1EF81F88580819181E8
:1038E000009759F40FB6F8940F92EF81F885828112
:1038F00093810E94E8250F900FBE8F819885419695
:103900002B853C85B9010E9429238F8198850E94CF
:10391000271E0E942F21882309F050CF0E945E1895
:103920004DCF8F8198850E94271E0E942F2146CF60
:103930008F8198850E94271E0E942F211E868E85CA
:103940002E960FB6F894DEBF0FBECDBFCF91DF919C
:103950000895DF93CF93CDB7DEB728970FB6F894CD
:10396000DEBF0FBECDBF9C838B837E836D83588764
:103970004F831982EB81FC81828D882371F18B81C9
:103980009C812D813E81B9010E94DF1DEB81FC816C
:10399000828D8150EB81FC81828FEB81FC81858D52
:1039A0008F3F89F4EB81FC818085882399F08B819E
:1039B0009C8108960E945F23882361F0EF81F8853F
:1039C00081E0808307C0EB81FC81858D8F5FEB8177
:1039D000FC81858F81E08A8301C01A828A812896C2
:1039E0000FB6F894DEBF0FBECDBFCF91DF91089523
:1039F000DF93CF9300D00F92CDB7DEB79B838A833E
:103A00000FB6F8940F92EA81FB81828D89830F9023
:103A10000FBE89810F900F900F90CF91DF91089585
:103A2000DF93CF9300D00F92CDB7DEB79B838A830D
:103A3000EA81FB81828D898389810F900F900F909D
:103A4000CF91DF910895DF93CF9300D0CDB7DEB74C
:103A50009A838983E981FA81808191810E944C1542
:103A600089819A810E944C150F900F90CF91DF9120
:103A70000895DF93CF9300D000D00F92CDB7DEB77B
:103A80009A8389837C836B834D83E981FA81848D5A
:103A9000882391F4E981FA8180819181009709F06E
:103AA0007FC0E981FA81828193810E946826E98141
:103AB000FA811382128274C08D81882399F5E9817D
:103AC000FA8164817581E981FA81848D482F50E003
:103AD0002B813C81CB01B9010E942A28E981FA811E
:103AE00024813581E981FA81848D882F90E0820FCD
:103AF000931FE981FA8195838483E981FA81248186
:103B00003581E981FA81828193812817390708F488
:103B100047C0E981FA8180819181E981FA819583A9
:103B200084833EC0E981FA8166817781E981FA81E7
:103B3000848D482F50E02B813C81CB01B9010E943C
:103B40002A28E981FA8126813781E981FA81848DE9
:103B5000882F90E0909581959F4F820F931FE98168
:103B6000FA8197838683E981FA8126813781E98109
:103B7000FA81808191812817390790F4E981FA81CF
:103B800022813381E981FA81848D882F90E090959C
:103B900081959F4F820F931FE981FA8197838683D6
:103BA000E981FA81828D8F5FE981FA81828F0F909E
:103BB0000F900F900F900F90CF91DF910895DF93AA
:103BC000CF9300D000D0CDB7DEB79A8389837C83B2
:103BD0006B83E981FA8180819181009789F1E98184
:103BE000FA8126813781E981FA81848D882F90E0DE
:103BF000820F931FE981FA8197838683E981FA8195
:103C000026813781E981FA818281938128173907DA
:103C100040F0E981FA8180819181E981FA8197837D
:103C20008683E981FA8146815781E981FA81848D11
:103C3000282F30E08B819C81BA01A9010E942A289B
:103C40000F900F900F900F90CF91DF910895DF9319
:103C5000CF9300D0CDB7DEB79A8389830FB6F8949F
:103C60000F9215C0E981FA8181898823A9F08981A1
:103C70009A8141960E945F23882311F00E943D247F
:103C8000E981FA81868D8150E981FA81868FE98107
:103C9000FA81868D181634F3E981FA818FEF868FC9
:103CA0000F900FBE0FB6F8940F9215C0E981FA81FC
:103CB00080858823A9F089819A8108960E945F23D4
:103CC000882311F00E943D24E981FA81858D81507D
:103CD000E981FA81858FE981FA81858D181634F39F
:103CE000E981FA818FEF858F0F900FBE0F900F90B3
:103CF000CF91DF910895DF93CF9300D00F92CDB78E
:103D0000DEB79B838A830FB6F8940F92EA81FB811A
:103D1000828D1982882311F481E089830F900FBE70
:103D200089810F900F900F90CF91DF910895DF93CD
:103D3000CF9300D00F92CDB7DEB79B838A83EA8101
:103D4000FB81828D1982882311F481E08983898126
:103D50000F900F900F90CF91DF910895DF93CF9345
:103D600000D00F92CDB7DEB79B838A830FB6F8944D
:103D70000F92EA81FB81928DEA81FB81838D19820A
:103D8000981711F481E089830F900FBE89810F90FD
:103D90000F900F90CF91DF910895DF93CF9300D0D4
:103DA0000F92CDB7DEB79B838A83EA81FB81928D28
:103DB000EA81FB81838D1982981711F481E0898350
:103DC00089810F900F900F90CF91DF910895AF925E
:103DD000BF92CF92DF92EF92FF920F931F93DF93E8
:103DE000CF93CDB7DEB764970FB6F894DEBF0FBEA2
:103DF000CDBF9F838E83798768875B874A873D879E
:103E00002C870E87F88AEF86DA8AC98ABC8AAB8A41
:103E10008A859B8529893A89B9010E9470259C83EE
:103E20008B838B819C81009709F499C0EB81FC8185
:103E30002789308D8A859B850197820F931F9A83EE
:103E400089838B819C8128853985EB89FC89AA85AA
:103E5000BB85B9014E859F018D010E945124898146
:103E60009A812E813F814C855D85B9010E949F1604
:103E7000EB81FC81918380838F859889009731F055
:103E8000EF85F8898B819C81918380830FB6F894AC
:103E90000F928091EF008F5F8093EF008091EC0094
:103EA0009091ED00009769F48B819C819093ED00D7
:103EB0008093EC008091EF008130A9F40E94AC2443
:103EC00012C08091F400882371F4E091EC00F0912D
:103ED000ED0096898E85891730F08B819C819093B7
:103EE000ED008093EC00EB81FC8196898091F200DB
:103EF000891728F4EB81FC8186898093F2008091F8
:103F0000F9008F5F8093F900EB81FC8196898091A5
:103F1000F300891728F4EB81FC8186898093F300F4
:103F2000EB81FC818689282F30E0C901880F991F19
:103F3000880F991F880F991F820F931FAC0146505D
:103F40005F4F8B819C819C012E5F3F4FCA01B9015D
:103F50000E949E1581E08D830F900FBE02C08FEFEF
:103F60008D838D81813071F48091F400882351F02C
:103F7000E091EC00F091ED0096898E85981710F491
:103F80000E945E188D8164960FB6F894DEBF0FBE56
:103F9000CDBFCF91DF911F910F91FF90EF90DF90F8
:103FA000CF90BF90AF900895DF93CF9300D000D013
:103FB00000D0CDB7DEB79C838B830FB6F8940F92F9
:103FC0002091EC003091ED008B819C81821793074A
:103FD00011F41C821B828B819C81009739F48091A3
:103FE000EC009091ED009E838D8304C08B819C81B9
:103FF0009E838D838D819E819A83898389819A8115
:1040000002960E945616E981FA8184899589009763
:1040100029F089819A810C960E94561689819A818D
:104020009C012E5F3F4F86E491E0B9010E949E15EE
:104030008091EE008F5F8093EE008091F9008F5F9A
:104040008093F9000F900FBE8091F400882331F027
:104050008B819C81009711F40E945E1826960FB602
:10406000F894DEBF0FBECDBFCF91DF910895DF93EF
:10407000CF93CDB7DEB728970FB6F894DEBF0FBE4B
:10408000CDBF9E838D8378876F8319820E94232101
:10409000ED81FE81208131818F819885820F931F70
:1040A0009C838B83ED81FE81208131818091F000A2
:1040B0009091F10082179307A8F4ED81FE81208191
:1040C00031818B819C818217930700F52091F0004C
:1040D0003091F1008B819C8128173907B8F481E079
:1040E000898314C0ED81FE81208131818B819C8187
:1040F0008217930748F02091F0003091F1008B81F6
:104100009C812817390710F481E08983ED81FE81B5
:104110008B819C81918380838981882359F0809150
:10412000EC009091ED0002960E9456168B819C81C6
:104130000E9427250E942F218A838A81882311F4D7
:104140000E945E1828960FB6F894DEBF0FBECDBF52
:10415000CF91DF910895DF93CF9300D000D00F92DD
:10416000CDB7DEB79D838C8319828C819D810097AA
:10417000D1F00E9423212091F0003091F1008C8138
:104180009D81820F931F9B838A838091EC00909185
:10419000ED0002960E9456168A819B810E94272577
:1041A0000E942F2189838981882311F40E945E183F
:1041B0000F900F900F900F900F90CF91DF91089577
:1041C000AF92BF92CF92DF92EF92FF920F93DF9365
:1041D000CF930F92CDB7DEB72CE930E087E494E2BD
:1041E000B90145E550E020E030E000E0EE24FF2496
:1041F000CC24DD24AA24BB240E94E71E8983898164
:10420000813051F4F89481E08093F4001092F10031
:104210001092F0000E9422180F90CF91DF910F9121
:10422000FF90EF90DF90CF90BF90AF900895DF9315
:10423000CF93CDB7DEB7F8941092F4000E945718D0
:10424000CF91DF910895DF93CF93CDB7DEB7809103
:10425000F5008F5F8093F500CF91DF910895DF9394
:10426000CF9300D000D0CDB7DEB71A820FB6F89446
:104270000F928091F50081508093F5008091F500B8
:10428000882309F06CC08091EF00882309F467C08F
:10429000198241C0E0914201F091430186819781EA
:1042A0009C838B838B819C810C960E9456168B81FC
:1042B0009C8102960E945616EB81FC819689809122
:1042C000F300891728F4EB81FC8186898093F30041
:1042D000EB81FC818689282F30E0C901880F991F66
:1042E000880F991F880F991F820F931F86509F4F29
:1042F0002B813C812E5F3F4FB9010E949E15EB81BF
:10430000FC819689E091EC00F091ED008689981788
:1043100010F081E0898380913D01882309F0BACFB4
:104320008091F600882371F007C00E94EE218091F1
:10433000F60081508093F6008091F6008823A9F75B
:1043400081E089838981813021F08091F70081307B
:1043500031F481E08A831092F7000E945E180F907A
:104360000FBE8A810F900F900F900F90CF91DF9129
:104370000895DF93CF9300D0CDB7DEB70FB6F89492
:104380000F928091F0009091F1009A8389830F90B1
:104390000FBE89819A810F900F90CF91DF91089580
:1043A000DF93CF9300D00F92CDB7DEB71982809103
:1043B000F0009091F1009B838A838A819B810F900A
:1043C0000F900F90CF91DF910895DF93CF93CDB7EA
:1043D000DEB78091EF00CF91DF910895DF93CF9307
:1043E00000D000D000D0CDB7DEB78091F500882393
:1043F00009F0BBC08091F0009091F100019690937C
:10440000F1008093F0008091F0009091F10000970E
:10441000D1F58091390190913A019C838B838091F1
:104420003B0190913C0190933A01809339018B813B
:104430009C8190933C0180933B018091F8008F5FB9
:104440008093F800E0913901F0913A01808188234E
:1044500039F48FEF9FEF9093B0008093AF0013C0BB
:10446000E0913901F0913A010580F681E02D8681D5
:1044700097819E838D83ED81FE81828193819093CC
:10448000B0008093AF002091F0003091F100809156
:10449000AF009091B0002817390708F46BC0E09185
:1044A0003901F0913A018081882339F48FEF9FEF31
:1044B0009093B0008093AF005DC0E0913901F0911E
:1044C0003A010580F681E02D868197819E838D8358
:1044D000ED81FE81828193819A8389832091F0000E
:1044E0003091F10089819A812817390738F4898140
:1044F0009A819093B0008093AF003CC08D819E81E3
:1045000002960E945616ED81FE8184899589009756
:1045100029F08D819E810C960E945616ED81FE81B8
:1045200096898091F300891728F4ED81FE818689B0
:104530008093F300ED81FE818689282F30E0C90148
:10454000880F991F880F991F880F991F820F931F3B
:10455000AC0146505F4F8D819E819C012E5F3F4F85
:10456000CA01B9010E949E159ACF8091F6008F5F13
:104570008093F60026960FB6F894DEBF0FBECDBF2F
:10458000CF91DF910895DF93CF9300D0CDB7DEB701
:104590008091F500882349F081E08093F70054C0B2
:1045A0008091F30081508093F3008091F300282FD5
:1045B00030E0C901880F991F880F991F880F991F34
:1045C000820F931FFC01E650FF4F8081882341F347
:1045D0008091F300282F30E0C901880F991F880FC0
:1045E000991F880F991F820F931F86509F4F9A83A0
:1045F0008983E981FA810180F281E02D82819381B2
:10460000E981FA8192838183E981FA812181328172
:1046100089819A8103962817390759F4E981FA812B
:104620000180F281E02D82819381E981FA81928378
:104630008183E981FA810180F281E02D8681978171
:104640009093ED008093EC000F900F90CF91DF914D
:104650000895DF93CF9300D000D000D0CDB7DEB760
:104660009C838B837E836D834B815C818091EC0086
:104670009091ED009C01245F3F4FCA01B9010E9457
:10468000EA158091EC009091ED0002960E9456167A
:104690002091F0003091F1008D819E81820F931F57
:1046A0009A83898389819A810E94272526960FB64D
:1046B000F894DEBF0FBECDBFCF91DF910895DF9399
:1046C000CF9300D000D00F92CDB7DEB79D838C83FF
:1046D000EC81FD810580F681E02D868197819B83A9
:1046E0008A838A819B810C960E9456168091F500E0
:1046F000882361F58A819B8102960E945616EA8181
:10470000FB8196898091F300891728F4EA81FB8167
:1047100086898093F300EA81FB818689282F30E027
:10472000C901880F991F880F991F880F991F820F41
:10473000931FAC0146505F4F8A819B819C012E5F85
:104740003F4FCA01B9010E949E150AC08A819B8110
:104750009C01245F3F4F8DE391E0B9010E949E15BB
:10476000EA81FB819689E091EC00F091ED00868969
:10477000981718F081E0898301C0198289810F9010
:104780000F900F900F900F90CF91DF910895DF93CE
:10479000CF9300D0CDB7DEB79A8389838091F8009C
:1047A000E981FA8180838091F0009091F100E981A4
:1047B000FA81928381830F900F90CF91DF910895BA
:1047C000DF93CF9300D000D00F92CDB7DEB79B839D
:1047D0008A837D836C830FB6F8940F92EA81FB8104
:1047E00090818091F800981771F0EA81FB81218116
:1047F00032818091F0009091F1008217930718F0B8
:1048000081E089832FC02091F0003091F100EA818E
:10481000FB8181819281281B390BEC81FD81808194
:10482000918128173907E0F4EC81FD8140815181A5
:10483000EA81FB81218132818091F0009091F10029
:10484000B901681B790BCB01840F951FEC81FD81A9
:10485000918380838A819B810E94C723198202C031
:1048600081E089830F900FBE89810F900F900F9088
:104870000F900F90CF91DF910895DF93CF93CDB735
:10488000DEB781E08093F700CF91DF910895DF9349
:10489000CF9300D0CDB7DEB79A8389830E94E924F5
:1048A000FDCF0F931F93DF93CF93CDB7DEB729973B
:1048B0000FB6F894DEBF0FBECDBF9A8389837C8389
:1048C0006B834D833F832E831987088789819A8163
:1048D00049962B813C81B90148E050E00E943A287A
:1048E000E981FA8110A28D81853010F084E08D83FA
:1048F000E981FA818D81868BE981FA818D8181A39D
:1049000089819A8102960E948E1589819A810C96DE
:104910000E948E15E981FA8189819A819187808729
:104920008D81282F30E085E090E0821B930BE98198
:10493000FA8195878487E981FA8189819A81938BAD
:10494000828B29960FB6F894DEBF0FBECDBFCF91F4
:10495000DF911F910F910895DF93CF930F92CDB701
:10496000DEB7198213C08981282F30E0C901880F72
:10497000991F880F991F880F991F820F931F8650C8
:104980009F4F0E94641589818F5F8983898185305B
:1049900050F387E291E00E94641580E391E00E9469
:1049A00064158DE391E00E94641586E491E00E9415
:1049B000641587E291E090933A018093390180E396
:1049C00091E090933C0180933B010F90CF91DF9158
:1049D0000895DF93CF9300D00F92CDB7DEB78091CB
:1049E000EE00882371F10E942321809146011B82F1
:1049F000882311F481E08B830E942F218B818823EF
:104A000001F50FB6F8940F92E0914B01F0914C0133
:104A1000868197819A83898389819A8102960E94EF
:104A200056168091EF0081508093EF008091EE0048
:104A300081508093EE000F900FBE89819A810E9471
:104A4000C0250F900F900F90CF91DF910895DF93C5
:104A5000CF9300D0CDB7DEB79A838983E091EC0085
:104A6000F091ED0089819A81938382832091F000F7
:104A70003091F10089819A818217930770F48091B7
:104A80003B0190913C012091EC003091ED002E5FB4
:104A90003F4FB9010E94EA151EC040913901509163
:104AA0003A018091EC009091ED009C012E5F3F4F08
:104AB000CA01B9010E94EA152091AF003091B000FF
:104AC00089819A818217930730F489819A81909322
:104AD000B0008093AF000F900F90CF91DF910895B9
:104AE000DF93CF93CDB7DEB728970FB6F894DEBF2C
:104AF0000FBECDBF9C838B837E836D8382E290E06B
:104B00000E9431159A83898389819A81009769F17E
:104B10008D819E81009739F48B819C810E94311593
:104B200098878F8304C08D819E8198878F83E981C8
:104B3000FA818F819885908F878BE981FA818789A7
:104B4000908D009739F489819A810E944C151A82C0
:104B500019820BC0E981FA818789908D2B813C8174
:104B600065EA70E0A9010E94332889819A8128961C
:104B70000FB6F894DEBF0FBECDBFCF91DF91089581
:104B8000DF93CF9300D0CDB7DEB79A838983E981D5
:104B9000FA818789908D0E944C1589819A810E94A3
:104BA0004C150F900F90CF91DF910895DF93CF9325
:104BB00000D0CDB7DEB78091EC009091ED009A83E4
:104BC000898389819A810F900F90CF91DF91089509
:104BD000DF93CF9300D000D0CDB7DEB79C838B831B
:104BE0008B819C819A838983E981FA819689E091FE
:104BF000EC00F091ED008689981708F062C0E09112
:104C0000EC00F091ED008689282F30E085E090E0FF
:104C1000821B930BE981FA8195878487E981FA8168
:104C200042855385E981FA818689282F30E0C901C0
:104C3000880F991F880F991F880F991F820F931F44
:104C400086509F4F48175907A1F589819A8102968E
:104C50000E945616E091EC00F091ED008689E98102
:104C6000FA81868BE981FA8196898091F300891710
:104C700028F4E981FA8186898093F300E981FA8139
:104C80008689282F30E0C901880F991F880F991F46
:104C9000880F991F820F931FAC0146505F4F898187
:104CA0009A819C012E5F3F4FCA01B9010E949E1557
:104CB00008C0E091EC00F091ED008689E981FA816D
:104CC000868B0F900F900F900F90CF91DF910895EA
:104CD000DF93CF9300D000D0CDB7DEB79C838B831A
:104CE0008B819C819A8389838B819C81009709F4B5
:104CF00047C0E981FA819689E981FA8181A19817F3
:104D000009F43EC089819A8102960E945616E98173
:104D1000FA8181A1E981FA81868BE981FA8186890C
:104D2000282F30E085E090E0821B930BE981FA8127
:104D300095878487E981FA8196898091F3008917A4
:104D400028F4E981FA8186898093F300E981FA8168
:104D50008689282F30E0C901880F991F880F991F75
:104D6000880F991F820F931FAC0146505F4F8981B6
:104D70009A819C012E5F3F4FCA01B9010E949E1586
:104D80000F900F900F900F90CF91DF91089597FBA8
:104D9000092E07260AD077FD04D00CD006D00020BB
:104DA0001AF4709561957F4F0895F6F79095819567
:104DB0009F4F0895AA1BBB1B51E107C0AA1FBB1F31
:104DC000A617B70710F0A61BB70B881F991F5A9597
:104DD000A9F780959095BC01CD0108952F923F923F
:104DE0004F925F926F927F928F929F92AF92BF92FB
:104DF000CF92DF92EF92FF920F931F93CF93DF93A7
:104E0000CDB7DEB7CA1BDB0B0FB6F894DEBF0FBE03
:104E1000CDBF09942A88398848885F846E847D8450
:104E20008C849B84AA84B984C884DF80EE80FD8052
:104E30000C811B81AA81B981CE0FD11D0FB6F894C8
:104E4000DEBF0FBECDBFED010895CF93DF93BC0150
:104E50008230910510F462E070E0A0915601B091AB
:104E60005701ED01E0E0F0E040E050E021C0888132
:104E700099818617970769F48A819B81309719F089
:104E80009383828304C09093570180935601FE015F
:104E900034C06817790738F44115510519F08417A3
:104EA000950708F4AC01FE018A819B819C01E90110
:104EB0002097E9F641155105A9F1CA01861B970B08
:104EC000049708F4BA01E0E0F0E02AC08D919C91CB
:104ED000119784179507F9F46417750781F41296F2
:104EE0008D919C911397309719F09383828304C01E
:104EF0009093570180935601FD0132964FC0CA012D
:104F0000861B970BFD01E80FF91F619371930297C0
:104F10008D939C9343C0FD01828193819C01D901B3
:104F20001097A1F68091540190915501892B41F47D
:104F30008091AB009091AC00909355018093540107
:104F40004091AD005091AE004115510541F44DB76F
:104F50005EB78091A9009091AA00481B590B20913F
:104F600054013091550124173507B0F4CA01821B52
:104F7000930B8617970780F0AB014E5F5F4F841746
:104F8000950750F0420F531F509355014093540121
:104F9000F9016193719302C0E0E0F0E0CF01DF918D
:104FA000CF910895CF93DF93009709F450C0EC019F
:104FB00022971B821A82A0915601B0915701109737
:104FC00009F140E050E0AC17BD0708F1BB83AA83AC
:104FD000FE0121913191E20FF31FAE17BF0779F463
:104FE0008D919C911197280F391F2E5F3F4F398368
:104FF000288312968D919C9113979B838A834115E8
:10500000510571F4D0935701C093560120C01296F8
:105010008D919C911397AD01009711F0DC01D3CFD6
:10502000FA01D383C28321913191E20FF31FCE178E
:10503000DF0769F488819981280F391F2E5F3F4F60
:10504000FA01318320838A819B8193838283DF915C
:10505000CF910895FB01DC0102C001900D924150F7
:105060005040D8F70895DC0101C06D934150504085
:10507000E0F70895FB01DC014150504048F00190F9
:105080000D920020C9F701C01D9241505040E0F739
:105090000895FB019F01E8944230C4F04532B4F416
:1050A0004A3029F497FB1EF4909581959F4F642F09
:1050B00077270E94DA26805D8A330CF0895D819320
:1050C000CB010097A1F716F45DE251931082C9015C
:1050D0000C946A28DC01FC01672F71917723E1F7BA
:1050E000329704C07C916D9370836291AE17BF07B5
:0850F000C8F30895F894FFCF06
:1050F800636865636B5F74656D700077726974656A
:105108005F74656D700054313A204E6F742053659A
:105118006E642E0054656D703A0054323A204E6F1A
:10512800742072656365697665642E0049444C4550
:10513800000000000000000000200058010000FFEF
:02514800FF0066
:00000001FF
